{"abi":[{"anonymous":false,"inputs":[{"indexed":true,"internalType":"address","name":"previousOwner","type":"address"},{"indexed":true,"internalType":"address","name":"newOwner","type":"address"}],"name":"OwnershipTransferred","type":"event"},{"anonymous":false,"inputs":[{"indexed":false,"internalType":"uint256","name":"id","type":"uint256"},{"indexed":false,"internalType":"string","name":"ipfsUrl","type":"string"},{"indexed":false,"internalType":"uint256","name":"timestamp","type":"uint256"}],"name":"PostCreated","type":"event"},{"stateMutability":"payable","type":"fallback"},{"inputs":[{"internalType":"string","name":"_title","type":"string"},{"internalType":"string","name":"_ipfsUrl","type":"string"}],"name":"createPost","outputs":[],"stateMutability":"nonpayable","type":"function"},{"inputs":[],"name":"getAllPosts","outputs":[{"components":[{"internalType":"string","name":"title","type":"string"},{"internalType":"string","name":"ipfsUrl","type":"string"},{"internalType":"uint256","name":"timestamp","type":"uint256"}],"internalType":"struct Blog.Post[]","name":"","type":"tuple[]"}],"stateMutability":"view","type":"function"},{"inputs":[{"internalType":"uint256","name":"_index","type":"uint256"}],"name":"getPost","outputs":[{"internalType":"string","name":"title","type":"string"},{"internalType":"string","name":"ipfsUrl","type":"string"},{"internalType":"uint256","name":"timestamp","type":"uint256"}],"stateMutability":"view","type":"function"},{"inputs":[],"name":"getPostsCount","outputs":[{"internalType":"uint256","name":"","type":"uint256"}],"stateMutability":"view","type":"function"},{"inputs":[],"name":"owner","outputs":[{"internalType":"address","name":"","type":"address"}],"stateMutability":"view","type":"function"},{"inputs":[{"internalType":"uint256","name":"","type":"uint256"}],"name":"posts","outputs":[{"internalType":"string","name":"title","type":"string"},{"internalType":"string","name":"ipfsUrl","type":"string"},{"internalType":"uint256","name":"timestamp","type":"uint256"}],"stateMutability":"view","type":"function"},{"inputs":[],"name":"renounceOwnership","outputs":[],"stateMutability":"nonpayable","type":"function"},{"inputs":[{"internalType":"address","name":"newOwner","type":"address"}],"name":"transferOwnership","outputs":[],"stateMutability":"nonpayable","type":"function"},{"inputs":[{"internalType":"uint256","name":"_index","type":"uint256"},{"internalType":"string","name":"_title","type":"string"}],"name":"updateTitle","outputs":[],"stateMutability":"nonpayable","type":"function"},{"inputs":[],"name":"withdraw","outputs":[],"stateMutability":"nonpayable","type":"function"},{"stateMutability":"payable","type":"receive"}],"bytecode":{"object":"0x608060405234801561001057600080fd5b5061001a3361001f565b61006f565b600080546001600160a01b038381166001600160a01b0319831681178455604051919092169283917f8be0079c531659141344cd1fd0a4f28419497f9722a3daafe3b4186f6b6457e09190a35050565b610f368061007e6000396000f3fe6080604052600436106100955760003560e01c80635786ead2116100595780635786ead21461020d578063715018a61461022d57806383624882146102425780638da5cb5b14610260578063f2fde38b146102885761014c565b80630b1e7f831461015e5780633056110014610196578063392338f5146101b85780633ccfd60b146101d857806340731c24146101ed5761014c565b3661014c57600080546001600160a01b03165b60405190915034906000906001600160a01b0384169083908381818185875af1925050503d80600081146100f8576040519150601f19603f3d011682016040523d82523d6000602084013e6100fd565b606091505b505090508061014a5760405162461bcd60e51b81526020600482015260146024820152732330b4b632b2103a379039b2b7321022ba3432b960611b60448201526064015b60405180910390fd5b005b600080546001600160a01b03166100a8565b34801561016a57600080fd5b5061017e610179366004610a9d565b6102a8565b60405161018d93929190610afc565b60405180910390f35b3480156101a257600080fd5b506101ab6103da565b60405161018d9190610b32565b3480156101c457600080fd5b5061014a6101d3366004610c66565b6105dd565b3480156101e457600080fd5b5061014a6106a1565b3480156101f957600080fd5b5061017e610208366004610a9d565b61074c565b34801561021957600080fd5b5061014a610228366004610cca565b6108f8565b34801561023957600080fd5b5061014a610966565b34801561024e57600080fd5b5060025460405190815260200161018d565b34801561026c57600080fd5b506000546040516001600160a01b03909116815260200161018d565b34801561029457600080fd5b5061014a6102a3366004610d07565b61097a565b6001602052600090815260409020805481906102c390610d37565b80601f01602080910402602001604051908101604052809291908181526020018280546102ef90610d37565b801561033c5780601f106103115761010080835404028352916020019161033c565b820191906000526020600020905b81548152906001019060200180831161031f57829003601f168201915b50505050509080600101805461035190610d37565b80601f016020809104026020016040519081016040528092919081815260200182805461037d90610d37565b80156103ca5780601f1061039f576101008083540402835291602001916103ca565b820191906000526020600020905b8154815290600101906020018083116103ad57829003601f168201915b5050505050908060020154905083565b6060600060025467ffffffffffffffff8111156103f9576103f9610bc3565b60405190808252806020026020018201604052801561044e57816020015b61043b60405180606001604052806060815260200160608152602001600081525090565b8152602001906001900390816104175790505b50905060005b6002548110156105d7576000818152600160205260409081902081516060810190925280549091908190839061048990610d37565b80601f01602080910402602001604051908101604052809291908181526020018280546104b590610d37565b80156105025780601f106104d757610100808354040283529160200191610502565b820191906000526020600020905b8154815290600101906020018083116104e557829003601f168201915b5050505050815260200182600101805461051b90610d37565b80601f016020809104026020016040519081016040528092919081815260200182805461054790610d37565b80156105945780601f1061056957610100808354040283529160200191610594565b820191906000526020600020905b81548152906001019060200180831161057757829003601f168201915b5050505050815260200182600201548152508383815181106105b8576105b8610d6b565b60200260200101819052505080806105cf90610d97565b915050610454565b50919050565b6105e56109f3565b604080516060810182528381526020808201849052428284015260025460009081526001909152919091208151819061061e9082610dfe565b50602082015160018201906106339082610dfe565b5060409190910151600291820155805490600061064f83610d97565b91905055507ff1feca0956b00ea58f186b162b552f007a3838885f13fbaae180e99e690bb7e660016002546106849190610ebe565b824260405161069593929190610ed7565b60405180910390a15050565b6106a96109f3565b600080546040516001600160a01b03909116914791839083908381818185875af1925050503d80600081146106fa576040519150601f19603f3d011682016040523d82523d6000602084013e6106ff565b606091505b50509050806107475760405162461bcd60e51b81526020600482015260146024820152732330b4b632b2103a379039b2b7321022ba3432b960611b6044820152606401610141565b505050565b606080600060025484106107985760405162461bcd60e51b8152602060048201526013602482015272496e646578206f7574206f6620626f756e647360681b6044820152606401610141565b6000848152600160205260408082208151606081019092528054829082906107bf90610d37565b80601f01602080910402602001604051908101604052809291908181526020018280546107eb90610d37565b80156108385780601f1061080d57610100808354040283529160200191610838565b820191906000526020600020905b81548152906001019060200180831161081b57829003601f168201915b5050505050815260200160018201805461085190610d37565b80601f016020809104026020016040519081016040528092919081815260200182805461087d90610d37565b80156108ca5780601f1061089f576101008083540402835291602001916108ca565b820191906000526020600020905b8154815290600101906020018083116108ad57829003601f168201915b5050509183525050600291909101546020918201528151908201516040909201519097919650945092505050565b6109006109f3565b60025482106109475760405162461bcd60e51b8152602060048201526013602482015272496e646578206f7574206f6620626f756e647360681b6044820152606401610141565b6000828152600160205260409020806109608382610dfe565b50505050565b61096e6109f3565b6109786000610a4d565b565b6109826109f3565b6001600160a01b0381166109e75760405162461bcd60e51b815260206004820152602660248201527f4f776e61626c653a206e6577206f776e657220697320746865207a65726f206160448201526564647265737360d01b6064820152608401610141565b6109f081610a4d565b50565b6000546001600160a01b031633146109785760405162461bcd60e51b815260206004820181905260248201527f4f776e61626c653a2063616c6c6572206973206e6f7420746865206f776e65726044820152606401610141565b600080546001600160a01b038381166001600160a01b0319831681178455604051919092169283917f8be0079c531659141344cd1fd0a4f28419497f9722a3daafe3b4186f6b6457e09190a35050565b600060208284031215610aaf57600080fd5b5035919050565b6000815180845260005b81811015610adc57602081850181015186830182015201610ac0565b506000602082860101526020601f19601f83011685010191505092915050565b606081526000610b0f6060830186610ab6565b8281036020840152610b218186610ab6565b915050826040830152949350505050565b60006020808301818452808551808352604092508286019150828160051b87010184880160005b83811015610bb557603f19898403018552815160608151818652610b7f82870182610ab6565b915050888201518582038a870152610b978282610ab6565b92890151958901959095525094870194925090860190600101610b59565b509098975050505050505050565b634e487b7160e01b600052604160045260246000fd5b600082601f830112610bea57600080fd5b813567ffffffffffffffff80821115610c0557610c05610bc3565b604051601f8301601f19908116603f01168101908282118183101715610c2d57610c2d610bc3565b81604052838152866020858801011115610c4657600080fd5b836020870160208301376000602085830101528094505050505092915050565b60008060408385031215610c7957600080fd5b823567ffffffffffffffff80821115610c9157600080fd5b610c9d86838701610bd9565b93506020850135915080821115610cb357600080fd5b50610cc085828601610bd9565b9150509250929050565b60008060408385031215610cdd57600080fd5b82359150602083013567ffffffffffffffff811115610cfb57600080fd5b610cc085828601610bd9565b600060208284031215610d1957600080fd5b81356001600160a01b0381168114610d3057600080fd5b9392505050565b600181811c90821680610d4b57607f821691505b6020821081036105d757634e487b7160e01b600052602260045260246000fd5b634e487b7160e01b600052603260045260246000fd5b634e487b7160e01b600052601160045260246000fd5b600060018201610da957610da9610d81565b5060010190565b601f82111561074757600081815260208120601f850160051c81016020861015610dd75750805b601f850160051c820191505b81811015610df657828155600101610de3565b505050505050565b815167ffffffffffffffff811115610e1857610e18610bc3565b610e2c81610e268454610d37565b84610db0565b602080601f831160018114610e615760008415610e495750858301515b600019600386901b1c1916600185901b178555610df6565b600085815260208120601f198616915b82811015610e9057888601518255948401946001909101908401610e71565b5085821015610eae5787850151600019600388901b60f8161c191681555b5050505050600190811b01905550565b81810381811115610ed157610ed1610d81565b92915050565b838152606060208201526000610ef06060830185610ab6565b905082604083015294935050505056fea2646970667358221220690154dbc491decd74bcfc9fb41f89bbd355735d3cd5a76a6bd20058cf5eb70164736f6c63430008110033","linkReferences":{}},"methodIdentifiers":{"createPost(string,string)":"392338f5","getAllPosts()":"30561100","getPost(uint256)":"40731c24","getPostsCount()":"83624882","owner()":"8da5cb5b","posts(uint256)":"0b1e7f83","renounceOwnership()":"715018a6","transferOwnership(address)":"f2fde38b","updateTitle(uint256,string)":"5786ead2","withdraw()":"3ccfd60b"},"id":21}