{
  "abi": [
    {
      "anonymous": false,
      "inputs": [
        {
          "indexed": true,
          "internalType": "address",
          "name": "previousOwner",
          "type": "address"
        },
        {
          "indexed": true,
          "internalType": "address",
          "name": "newOwner",
          "type": "address"
        }
      ],
      "name": "OwnershipTransferred",
      "type": "event"
    },
    {
      "anonymous": false,
      "inputs": [
        {
          "indexed": false,
          "internalType": "string",
          "name": "ipfsUrl",
          "type": "string"
        },
        {
          "indexed": false,
          "internalType": "uint256",
          "name": "timestamp",
          "type": "uint256"
        }
      ],
      "name": "PostCreated",
      "type": "event"
    },
    {
      "inputs": [
        {
          "internalType": "string",
          "name": "_ipfsUrl",
          "type": "string"
        }
      ],
      "name": "createPost",
      "outputs": [],
      "stateMutability": "nonpayable",
      "type": "function"
    },
    {
      "inputs": [
        {
          "internalType": "uint256",
          "name": "_index",
          "type": "uint256"
        }
      ],
      "name": "getPost",
      "outputs": [
        {
          "internalType": "string",
          "name": "ipfsUrl",
          "type": "string"
        },
        {
          "internalType": "uint256",
          "name": "timestamp",
          "type": "uint256"
        }
      ],
      "stateMutability": "view",
      "type": "function"
    },
    {
      "inputs": [],
      "name": "getPostsCount",
      "outputs": [
        {
          "internalType": "uint256",
          "name": "",
          "type": "uint256"
        }
      ],
      "stateMutability": "view",
      "type": "function"
    },
    {
      "inputs": [],
      "name": "owner",
      "outputs": [
        {
          "internalType": "address",
          "name": "",
          "type": "address"
        }
      ],
      "stateMutability": "view",
      "type": "function"
    },
    {
      "inputs": [
        {
          "internalType": "uint256",
          "name": "",
          "type": "uint256"
        }
      ],
      "name": "posts",
      "outputs": [
        {
          "internalType": "string",
          "name": "ipfsUrl",
          "type": "string"
        },
        {
          "internalType": "uint256",
          "name": "timestamp",
          "type": "uint256"
        }
      ],
      "stateMutability": "view",
      "type": "function"
    },
    {
      "inputs": [],
      "name": "renounceOwnership",
      "outputs": [],
      "stateMutability": "nonpayable",
      "type": "function"
    },
    {
      "inputs": [
        {
          "internalType": "address",
          "name": "newOwner",
          "type": "address"
        }
      ],
      "name": "transferOwnership",
      "outputs": [],
      "stateMutability": "nonpayable",
      "type": "function"
    }
  ],
  "bytecode": {
    "object": "0x608060405234801561001057600080fd5b5061001a3361001f565b61006f565b600080546001600160a01b038381166001600160a01b0319831681178455604051919092169283917f8be0079c531659141344cd1fd0a4f28419497f9722a3daafe3b4186f6b6457e09190a35050565b6107958061007e6000396000f3fe608060405234801561001057600080fd5b506004361061007d5760003560e01c8063836248821161005b57806383624882146100c95780638da5cb5b146100da578063c7303c61146100f5578063f2fde38b1461010857600080fd5b80630b1e7f831461008257806340731c24146100ac578063715018a6146100bf575b600080fd5b61009561009036600461049b565b61011b565b6040516100a39291906104b4565b60405180910390f35b6100956100ba36600461049b565b6101d7565b6100c76102b6565b005b6001546040519081526020016100a3565b6000546040516001600160a01b0390911681526020016100a3565b6100c761010336600461051f565b6102ca565b6100c76101163660046105d0565b610373565b6001818154811061012b57600080fd5b906000526020600020906002020160009150905080600001805461014e90610600565b80601f016020809104026020016040519081016040528092919081815260200182805461017a90610600565b80156101c75780601f1061019c576101008083540402835291602001916101c7565b820191906000526020600020905b8154815290600101906020018083116101aa57829003601f168201915b5050505050908060010154905082565b6060600080600184815481106101ef576101ef61063a565b906000526020600020906002020160405180604001604052908160008201805461021890610600565b80601f016020809104026020016040519081016040528092919081815260200182805461024490610600565b80156102915780601f1061026657610100808354040283529160200191610291565b820191906000526020600020905b81548152906001019060200180831161027457829003601f168201915b5050509183525050600191909101546020918201528151910151909590945092505050565b6102be6103f1565b6102c8600061044b565b565b6102d26103f1565b60408051808201909152818152426020820152600180548082018255600091909152815160029091027fb10e2d527612073b26eecdfd717e6a320cf44b4afac2b0732d9fcbe2b7fa0cf60190819061032a908261069f565b506020820151816001015550507f8bed420d642f3f71000caf554c0351ced19dc5b0dd8632f5f586e077995ded6781426040516103689291906104b4565b60405180910390a150565b61037b6103f1565b6001600160a01b0381166103e55760405162461bcd60e51b815260206004820152602660248201527f4f776e61626c653a206e6577206f776e657220697320746865207a65726f206160448201526564647265737360d01b60648201526084015b60405180910390fd5b6103ee8161044b565b50565b6000546001600160a01b031633146102c85760405162461bcd60e51b815260206004820181905260248201527f4f776e61626c653a2063616c6c6572206973206e6f7420746865206f776e657260448201526064016103dc565b600080546001600160a01b038381166001600160a01b0319831681178455604051919092169283917f8be0079c531659141344cd1fd0a4f28419497f9722a3daafe3b4186f6b6457e09190a35050565b6000602082840312156104ad57600080fd5b5035919050565b604081526000835180604084015260005b818110156104e257602081870181015160608684010152016104c5565b506000606082850101526060601f19601f8301168401019150508260208301529392505050565b634e487b7160e01b600052604160045260246000fd5b60006020828403121561053157600080fd5b813567ffffffffffffffff8082111561054957600080fd5b818401915084601f83011261055d57600080fd5b81358181111561056f5761056f610509565b604051601f8201601f19908116603f0116810190838211818310171561059757610597610509565b816040528281528760208487010111156105b057600080fd5b826020860160208301376000928101602001929092525095945050505050565b6000602082840312156105e257600080fd5b81356001600160a01b03811681146105f957600080fd5b9392505050565b600181811c9082168061061457607f821691505b60208210810361063457634e487b7160e01b600052602260045260246000fd5b50919050565b634e487b7160e01b600052603260045260246000fd5b601f82111561069a57600081815260208120601f850160051c810160208610156106775750805b601f850160051c820191505b8181101561069657828155600101610683565b5050505b505050565b815167ffffffffffffffff8111156106b9576106b9610509565b6106cd816106c78454610600565b84610650565b602080601f83116001811461070257600084156106ea5750858301515b600019600386901b1c1916600185901b178555610696565b600085815260208120601f198616915b8281101561073157888601518255948401946001909101908401610712565b508582101561074f5787850151600019600388901b60f8161c191681555b5050505050600190811b0190555056fea26469706673582212208d4c7a4b05ad39495867885d836c6054cc8f99f0b69c9dc1acd9a7db847fb78e64736f6c63430008110033",
    "linkReferences": {}
  },
  "methodIdentifiers": {
    "createPost(string)": "c7303c61",
    "getPost(uint256)": "40731c24",
    "getPostsCount()": "83624882",
    "owner()": "8da5cb5b",
    "posts(uint256)": "0b1e7f83",
    "renounceOwnership()": "715018a6",
    "transferOwnership(address)": "f2fde38b"
  },
  "id": 19
}