{
  "abi": [
    {
      "anonymous": false,
      "inputs": [
        {
          "indexed": true,
          "internalType": "address",
          "name": "previousOwner",
          "type": "address"
        },
        {
          "indexed": true,
          "internalType": "address",
          "name": "newOwner",
          "type": "address"
        }
      ],
      "name": "OwnershipTransferred",
      "type": "event"
    },
    {
      "anonymous": false,
      "inputs": [
        {
          "indexed": false,
          "internalType": "uint256",
          "name": "id",
          "type": "uint256"
        },
        {
          "indexed": false,
          "internalType": "string",
          "name": "ipfsUrl",
          "type": "string"
        },
        {
          "indexed": false,
          "internalType": "uint256",
          "name": "timestamp",
          "type": "uint256"
        }
      ],
      "name": "PostCreated",
      "type": "event"
    },
    {
      "inputs": [
        {
          "internalType": "string",
          "name": "_title",
          "type": "string"
        },
        {
          "internalType": "string",
          "name": "_ipfsUrl",
          "type": "string"
        }
      ],
      "name": "createPost",
      "outputs": [],
      "stateMutability": "nonpayable",
      "type": "function"
    },
    {
      "inputs": [],
      "name": "getAllPosts",
      "outputs": [
        {
          "components": [
            {
              "internalType": "string",
              "name": "title",
              "type": "string"
            },
            {
              "internalType": "string",
              "name": "ipfsUrl",
              "type": "string"
            },
            {
              "internalType": "uint256",
              "name": "timestamp",
              "type": "uint256"
            }
          ],
          "internalType": "struct Blog.Post[]",
          "name": "",
          "type": "tuple[]"
        }
      ],
      "stateMutability": "view",
      "type": "function"
    },
    {
      "inputs": [
        {
          "internalType": "uint256",
          "name": "_index",
          "type": "uint256"
        }
      ],
      "name": "getPost",
      "outputs": [
        {
          "internalType": "string",
          "name": "title",
          "type": "string"
        },
        {
          "internalType": "string",
          "name": "ipfsUrl",
          "type": "string"
        },
        {
          "internalType": "uint256",
          "name": "timestamp",
          "type": "uint256"
        }
      ],
      "stateMutability": "view",
      "type": "function"
    },
    {
      "inputs": [],
      "name": "getPostsCount",
      "outputs": [
        {
          "internalType": "uint256",
          "name": "",
          "type": "uint256"
        }
      ],
      "stateMutability": "view",
      "type": "function"
    },
    {
      "inputs": [],
      "name": "owner",
      "outputs": [
        {
          "internalType": "address",
          "name": "",
          "type": "address"
        }
      ],
      "stateMutability": "view",
      "type": "function"
    },
    {
      "inputs": [
        {
          "internalType": "uint256",
          "name": "",
          "type": "uint256"
        }
      ],
      "name": "posts",
      "outputs": [
        {
          "internalType": "string",
          "name": "title",
          "type": "string"
        },
        {
          "internalType": "string",
          "name": "ipfsUrl",
          "type": "string"
        },
        {
          "internalType": "uint256",
          "name": "timestamp",
          "type": "uint256"
        }
      ],
      "stateMutability": "view",
      "type": "function"
    },
    {
      "inputs": [],
      "name": "renounceOwnership",
      "outputs": [],
      "stateMutability": "nonpayable",
      "type": "function"
    },
    {
      "inputs": [
        {
          "internalType": "address",
          "name": "newOwner",
          "type": "address"
        }
      ],
      "name": "transferOwnership",
      "outputs": [],
      "stateMutability": "nonpayable",
      "type": "function"
    },
    {
      "inputs": [
        {
          "internalType": "uint256",
          "name": "_index",
          "type": "uint256"
        },
        {
          "internalType": "string",
          "name": "_title",
          "type": "string"
        }
      ],
      "name": "updateTitle",
      "outputs": [],
      "stateMutability": "nonpayable",
      "type": "function"
    }
  ],
  "bytecode": {
    "object": "0x608060405234801561001057600080fd5b5061001a3361001f565b61006f565b600080546001600160a01b038381166001600160a01b0319831681178455604051919092169283917f8be0079c531659141344cd1fd0a4f28419497f9722a3daafe3b4186f6b6457e09190a35050565b610d438061007e6000396000f3fe608060405234801561001057600080fd5b50600436106100935760003560e01c80635786ead2116100665780635786ead214610100578063715018a614610113578063836248821461011b5780638da5cb5b1461012c578063f2fde38b1461014757600080fd5b80630b1e7f831461009857806330561100146100c3578063392338f5146100d857806340731c24146100ed575b600080fd5b6100ab6100a63660046108a9565b61015a565b6040516100ba93929190610908565b60405180910390f35b6100cb61028c565b6040516100ba919061093e565b6100eb6100e6366004610a72565b61048f565b005b6100ab6100fb3660046108a9565b610553565b6100eb61010e366004610ad6565b610704565b6100eb610772565b6002546040519081526020016100ba565b6000546040516001600160a01b0390911681526020016100ba565b6100eb610155366004610b13565b610786565b60016020526000908152604090208054819061017590610b43565b80601f01602080910402602001604051908101604052809291908181526020018280546101a190610b43565b80156101ee5780601f106101c3576101008083540402835291602001916101ee565b820191906000526020600020905b8154815290600101906020018083116101d157829003601f168201915b50505050509080600101805461020390610b43565b80601f016020809104026020016040519081016040528092919081815260200182805461022f90610b43565b801561027c5780601f106102515761010080835404028352916020019161027c565b820191906000526020600020905b81548152906001019060200180831161025f57829003601f168201915b5050505050908060020154905083565b6060600060025467ffffffffffffffff8111156102ab576102ab6109cf565b60405190808252806020026020018201604052801561030057816020015b6102ed60405180606001604052806060815260200160608152602001600081525090565b8152602001906001900390816102c95790505b50905060005b600254811015610489576000818152600160205260409081902081516060810190925280549091908190839061033b90610b43565b80601f016020809104026020016040519081016040528092919081815260200182805461036790610b43565b80156103b45780601f10610389576101008083540402835291602001916103b4565b820191906000526020600020905b81548152906001019060200180831161039757829003601f168201915b505050505081526020018260010180546103cd90610b43565b80601f01602080910402602001604051908101604052809291908181526020018280546103f990610b43565b80156104465780601f1061041b57610100808354040283529160200191610446565b820191906000526020600020905b81548152906001019060200180831161042957829003601f168201915b50505050508152602001826002015481525083838151811061046a5761046a610b77565b602002602001018190525050808061048190610ba3565b915050610306565b50919050565b6104976107ff565b60408051606081018252838152602080820184905242828401526002546000908152600190915291909120815181906104d09082610c0b565b50602082015160018201906104e59082610c0b565b5060409190910151600291820155805490600061050183610ba3565b91905055507ff1feca0956b00ea58f186b162b552f007a3838885f13fbaae180e99e690bb7e660016002546105369190610ccb565b824260405161054793929190610ce4565b60405180910390a15050565b606080600060025484106105a45760405162461bcd60e51b8152602060048201526013602482015272496e646578206f7574206f6620626f756e647360681b60448201526064015b60405180910390fd5b6000848152600160205260408082208151606081019092528054829082906105cb90610b43565b80601f01602080910402602001604051908101604052809291908181526020018280546105f790610b43565b80156106445780601f1061061957610100808354040283529160200191610644565b820191906000526020600020905b81548152906001019060200180831161062757829003601f168201915b5050505050815260200160018201805461065d90610b43565b80601f016020809104026020016040519081016040528092919081815260200182805461068990610b43565b80156106d65780601f106106ab576101008083540402835291602001916106d6565b820191906000526020600020905b8154815290600101906020018083116106b957829003601f168201915b5050509183525050600291909101546020918201528151908201516040909201519097919650945092505050565b61070c6107ff565b60025482106107535760405162461bcd60e51b8152602060048201526013602482015272496e646578206f7574206f6620626f756e647360681b604482015260640161059b565b60008281526001602052604090208061076c8382610c0b565b50505050565b61077a6107ff565b6107846000610859565b565b61078e6107ff565b6001600160a01b0381166107f35760405162461bcd60e51b815260206004820152602660248201527f4f776e61626c653a206e6577206f776e657220697320746865207a65726f206160448201526564647265737360d01b606482015260840161059b565b6107fc81610859565b50565b6000546001600160a01b031633146107845760405162461bcd60e51b815260206004820181905260248201527f4f776e61626c653a2063616c6c6572206973206e6f7420746865206f776e6572604482015260640161059b565b600080546001600160a01b038381166001600160a01b0319831681178455604051919092169283917f8be0079c531659141344cd1fd0a4f28419497f9722a3daafe3b4186f6b6457e09190a35050565b6000602082840312156108bb57600080fd5b5035919050565b6000815180845260005b818110156108e8576020818501810151868301820152016108cc565b506000602082860101526020601f19601f83011685010191505092915050565b60608152600061091b60608301866108c2565b828103602084015261092d81866108c2565b915050826040830152949350505050565b60006020808301818452808551808352604092508286019150828160051b87010184880160005b838110156109c157603f1989840301855281516060815181865261098b828701826108c2565b915050888201518582038a8701526109a382826108c2565b92890151958901959095525094870194925090860190600101610965565b509098975050505050505050565b634e487b7160e01b600052604160045260246000fd5b600082601f8301126109f657600080fd5b813567ffffffffffffffff80821115610a1157610a116109cf565b604051601f8301601f19908116603f01168101908282118183101715610a3957610a396109cf565b81604052838152866020858801011115610a5257600080fd5b836020870160208301376000602085830101528094505050505092915050565b60008060408385031215610a8557600080fd5b823567ffffffffffffffff80821115610a9d57600080fd5b610aa9868387016109e5565b93506020850135915080821115610abf57600080fd5b50610acc858286016109e5565b9150509250929050565b60008060408385031215610ae957600080fd5b82359150602083013567ffffffffffffffff811115610b0757600080fd5b610acc858286016109e5565b600060208284031215610b2557600080fd5b81356001600160a01b0381168114610b3c57600080fd5b9392505050565b600181811c90821680610b5757607f821691505b60208210810361048957634e487b7160e01b600052602260045260246000fd5b634e487b7160e01b600052603260045260246000fd5b634e487b7160e01b600052601160045260246000fd5b600060018201610bb557610bb5610b8d565b5060010190565b601f821115610c0657600081815260208120601f850160051c81016020861015610be35750805b601f850160051c820191505b81811015610c0257828155600101610bef565b5050505b505050565b815167ffffffffffffffff811115610c2557610c256109cf565b610c3981610c338454610b43565b84610bbc565b602080601f831160018114610c6e5760008415610c565750858301515b600019600386901b1c1916600185901b178555610c02565b600085815260208120601f198616915b82811015610c9d57888601518255948401946001909101908401610c7e565b5085821015610cbb5787850151600019600388901b60f8161c191681555b5050505050600190811b01905550565b81810381811115610cde57610cde610b8d565b92915050565b838152606060208201526000610cfd60608301856108c2565b905082604083015294935050505056fea2646970667358221220e8e352aa18a1d2a16a447e61b88e502520d67240045143cf54e93e2fbe5b1a1264736f6c63430008110033",
    "linkReferences": {}
  },
  "methodIdentifiers": {
    "createPost(string,string)": "392338f5",
    "getAllPosts()": "30561100",
    "getPost(uint256)": "40731c24",
    "getPostsCount()": "83624882",
    "owner()": "8da5cb5b",
    "posts(uint256)": "0b1e7f83",
    "renounceOwnership()": "715018a6",
    "transferOwnership(address)": "f2fde38b",
    "updateTitle(uint256,string)": "5786ead2"
  },
  "id": 19
}